{
  "contractName": "PaymentChannel",
  "abi": [
    {
      "inputs": [
        {
          "internalType": "address",
          "name": "_token",
          "type": "address"
        }
      ],
      "stateMutability": "nonpayable",
      "type": "constructor"
    },
    {
      "anonymous": false,
      "inputs": [
        {
          "indexed": false,
          "internalType": "bytes32",
          "name": "channelId",
          "type": "bytes32"
        }
      ],
      "name": "ChannelOpened",
      "type": "event"
    },
    {
      "anonymous": false,
      "inputs": [
        {
          "indexed": false,
          "internalType": "uint256",
          "name": "balance",
          "type": "uint256"
        }
      ],
      "name": "Closed",
      "type": "event"
    },
    {
      "anonymous": false,
      "inputs": [
        {
          "indexed": false,
          "internalType": "bytes32",
          "name": "message",
          "type": "bytes32"
        }
      ],
      "name": "Message",
      "type": "event"
    },
    {
      "anonymous": false,
      "inputs": [
        {
          "indexed": false,
          "internalType": "bytes32",
          "name": "signature",
          "type": "bytes32"
        }
      ],
      "name": "Signature",
      "type": "event"
    },
    {
      "inputs": [],
      "name": "channelId",
      "outputs": [
        {
          "internalType": "bytes32",
          "name": "",
          "type": "bytes32"
        }
      ],
      "stateMutability": "view",
      "type": "function",
      "constant": true
    },
    {
      "inputs": [],
      "name": "expiration",
      "outputs": [
        {
          "internalType": "uint256",
          "name": "",
          "type": "uint256"
        }
      ],
      "stateMutability": "view",
      "type": "function",
      "constant": true
    },
    {
      "inputs": [],
      "name": "recipient",
      "outputs": [
        {
          "internalType": "address",
          "name": "",
          "type": "address"
        }
      ],
      "stateMutability": "view",
      "type": "function",
      "constant": true
    },
    {
      "inputs": [],
      "name": "sender",
      "outputs": [
        {
          "internalType": "address",
          "name": "",
          "type": "address"
        }
      ],
      "stateMutability": "view",
      "type": "function",
      "constant": true
    },
    {
      "inputs": [],
      "name": "state",
      "outputs": [
        {
          "internalType": "enum PaymentChannel.State",
          "name": "",
          "type": "uint8"
        }
      ],
      "stateMutability": "view",
      "type": "function",
      "constant": true
    },
    {
      "inputs": [],
      "name": "token",
      "outputs": [
        {
          "internalType": "contract IERC20",
          "name": "",
          "type": "address"
        }
      ],
      "stateMutability": "view",
      "type": "function",
      "constant": true
    },
    {
      "inputs": [
        {
          "internalType": "address",
          "name": "_recipient",
          "type": "address"
        },
        {
          "internalType": "uint256",
          "name": "duration",
          "type": "uint256"
        }
      ],
      "name": "openChannel",
      "outputs": [],
      "stateMutability": "nonpayable",
      "type": "function"
    },
    {
      "inputs": [
        {
          "internalType": "uint256",
          "name": "amount",
          "type": "uint256"
        },
        {
          "internalType": "uint256",
          "name": "nonce",
          "type": "uint256"
        },
        {
          "internalType": "bytes",
          "name": "signature",
          "type": "bytes"
        }
      ],
      "name": "closeChannel",
      "outputs": [],
      "stateMutability": "nonpayable",
      "type": "function"
    },
    {
      "inputs": [
        {
          "internalType": "uint256",
          "name": "duration",
          "type": "uint256"
        }
      ],
      "name": "extend",
      "outputs": [],
      "stateMutability": "nonpayable",
      "type": "function"
    }
  ],
  "bytecode": "0x608060405260008060016101000a81548160ff021916908360028111156200002c576200002b62000107565b5b02179055503480156200003e57600080fd5b5060405162001af238038062001af28339818101604052810190620000649190620001a0565b60016000806101000a81548160ff02191690831515021790555080600360006101000a81548173ffffffffffffffffffffffffffffffffffffffff021916908373ffffffffffffffffffffffffffffffffffffffff16021790555033600060026101000a81548173ffffffffffffffffffffffffffffffffffffffff021916908373ffffffffffffffffffffffffffffffffffffffff16021790555050620001d2565b7f4e487b7100000000000000000000000000000000000000000000000000000000600052602160045260246000fd5b600080fd5b600073ffffffffffffffffffffffffffffffffffffffff82169050919050565b600062000168826200013b565b9050919050565b6200017a816200015b565b81146200018657600080fd5b50565b6000815190506200019a816200016f565b92915050565b600060208284031215620001b957620001b862000136565b5b6000620001c98482850162000189565b91505092915050565b61191080620001e26000396000f3fe608060405234801561001057600080fd5b50600436106100935760003560e01c80639714378c116100665780639714378c1461010e578063c19d93fb1461012a578063e2cee54414610148578063eecbbb7214610166578063fc0c546a1461018257610093565b806324f453d1146100985780634665096d146100b457806366d003ac146100d257806367e404ce146100f0575b600080fd5b6100b260048036038101906100ad9190610d90565b6101a0565b005b6100bc6103b7565b6040516100c99190610ddf565b60405180910390f35b6100da6103bd565b6040516100e79190610e09565b60405180910390f35b6100f86103e3565b6040516101059190610e09565b60405180910390f35b61012860048036038101906101239190610e24565b610409565b005b61013261052d565b60405161013f9190610ec8565b60405180910390f35b610150610540565b60405161015d9190610efc565b60405180910390f35b610180600480360381019061017b919061105d565b610546565b005b61018a610bb6565b604051610197919061112b565b60405180910390f35b600060029054906101000a900473ffffffffffffffffffffffffffffffffffffffff1673ffffffffffffffffffffffffffffffffffffffff163373ffffffffffffffffffffffffffffffffffffffff1614610230576040517f08c379a0000000000000000000000000000000000000000000000000000000008152600401610227906111c9565b60405180910390fd5b600080600281111561024557610244610e51565b5b600060019054906101000a900460ff16600281111561026757610266610e51565b5b146102a7576040517f08c379a000000000000000000000000000000000000000000000000000000000815260040161029e90611235565b60405180910390fd5b82600160006101000a81548173ffffffffffffffffffffffffffffffffffffffff021916908373ffffffffffffffffffffffffffffffffffffffff16021790555081426102f49190611284565b6002819055506001600060016101000a81548160ff021916908360028111156103205761031f610e51565b5b0217905550610373600060029054906101000a900473ffffffffffffffffffffffffffffffffffffffff16600160009054906101000a900473ffffffffffffffffffffffffffffffffffffffff16610bdc565b6004819055507f7ffc675d721b8768e035a323722842743bb523487b535906abc97e6b3e2095d06004546040516103aa9190610efc565b60405180910390a1505050565b60025481565b600160009054906101000a900473ffffffffffffffffffffffffffffffffffffffff1681565b600060029054906101000a900473ffffffffffffffffffffffffffffffffffffffff1681565b600060029054906101000a900473ffffffffffffffffffffffffffffffffffffffff1673ffffffffffffffffffffffffffffffffffffffff163373ffffffffffffffffffffffffffffffffffffffff1614610499576040517f08c379a0000000000000000000000000000000000000000000000000000000008152600401610490906111c9565b60405180910390fd5b60018060028111156104ae576104ad610e51565b5b600060019054906101000a900460ff1660028111156104d0576104cf610e51565b5b14610510576040517f08c379a000000000000000000000000000000000000000000000000000000000815260040161050790611235565b60405180910390fd5b81600260008282546105229190611284565b925050819055505050565b600060019054906101000a900460ff1681565b60045481565b60008054906101000a900460ff16610593576040517f08c379a000000000000000000000000000000000000000000000000000000000815260040161058a90611326565b60405180910390fd5b60008060006101000a81548160ff021916908315150217905550600060029054906101000a900473ffffffffffffffffffffffffffffffffffffffff1673ffffffffffffffffffffffffffffffffffffffff163373ffffffffffffffffffffffffffffffffffffffff1614806106565750600160009054906101000a900473ffffffffffffffffffffffffffffffffffffffff1673ffffffffffffffffffffffffffffffffffffffff163373ffffffffffffffffffffffffffffffffffffffff16145b610695576040517f08c379a000000000000000000000000000000000000000000000000000000000815260040161068c90611392565b60405180910390fd5b60018060028111156106aa576106a9610e51565b5b600060019054906101000a900460ff1660028111156106cc576106cb610e51565b5b1461070c576040517f08c379a000000000000000000000000000000000000000000000000000000000815260040161070390611235565b60405180910390fd5b600254421115610751576040517f08c379a0000000000000000000000000000000000000000000000000000000008152600401610748906113fe565b60405180910390fd5b600084308560405160200161076893929190611487565b6040516020818303038152906040528051906020012090507f0e0baaba014023df9b5d9440d5ceb3bb339a70cf93635321b1e4e2e03832a719816040516107af9190610efc565b60405180910390a16000816040516020016107ca919061153c565b604051602081830303815290604052805190602001209050600060029054906101000a900473ffffffffffffffffffffffffffffffffffffffff1673ffffffffffffffffffffffffffffffffffffffff166108258286610c11565b73ffffffffffffffffffffffffffffffffffffffff161461087b576040517f08c379a0000000000000000000000000000000000000000000000000000000008152600401610872906115ae565b60405180910390fd5b7f6cc09e7b5c3e49861ebe8f6867e1618fbfc14c8d0e968fde37c4243ca02a6f83866040516108aa9190610ddf565b60405180910390a16000600360009054906101000a900473ffffffffffffffffffffffffffffffffffffffff1673ffffffffffffffffffffffffffffffffffffffff166370a08231306040518263ffffffff1660e01b815260040161090f9190610e09565b602060405180830381865afa15801561092c573d6000803e3d6000fd5b505050506040513d601f19601f8201168201806040525081019061095091906115e3565b9050600360009054906101000a900473ffffffffffffffffffffffffffffffffffffffff1673ffffffffffffffffffffffffffffffffffffffff1663a9059cbb600160009054906101000a900473ffffffffffffffffffffffffffffffffffffffff16896040518363ffffffff1660e01b81526004016109d1929190611610565b6020604051808303816000875af11580156109f0573d6000803e3d6000fd5b505050506040513d601f19601f82011682018060405250810190610a149190611671565b610a53576040517f08c379a0000000000000000000000000000000000000000000000000000000008152600401610a4a90611710565b60405180910390fd5b86811115610b6857600360009054906101000a900473ffffffffffffffffffffffffffffffffffffffff1673ffffffffffffffffffffffffffffffffffffffff1663a9059cbb600060029054906101000a900473ffffffffffffffffffffffffffffffffffffffff168984610ac89190611730565b6040518363ffffffff1660e01b8152600401610ae5929190611610565b6020604051808303816000875af1158015610b04573d6000803e3d6000fd5b505050506040513d601f19601f82011682018060405250810190610b289190611671565b610b67576040517f08c379a0000000000000000000000000000000000000000000000000000000008152600401610b5e906117b0565b60405180910390fd5b5b6002600060016101000a81548160ff02191690836002811115610b8e57610b8d610e51565b5b02179055505050505060016000806101000a81548160ff021916908315150217905550505050565b600360009054906101000a900473ffffffffffffffffffffffffffffffffffffffff1681565b6000828242604051602001610bf3939291906117d0565b60405160208183030381529060405280519060200120905092915050565b600080600080610c2085610c80565b92509250925060018684848460405160008152602001604052604051610c499493929190611829565b6020604051602081039080840390855afa158015610c6b573d6000803e3d6000fd5b50505060206040510351935050505092915050565b60008060006041845114610cc9576040517f08c379a0000000000000000000000000000000000000000000000000000000008152600401610cc0906118ba565b60405180910390fd5b6020840151915060408401519050606084015160001a92509193909250565b6000604051905090565b600080fd5b600080fd5b600073ffffffffffffffffffffffffffffffffffffffff82169050919050565b6000610d2782610cfc565b9050919050565b610d3781610d1c565b8114610d4257600080fd5b50565b600081359050610d5481610d2e565b92915050565b6000819050919050565b610d6d81610d5a565b8114610d7857600080fd5b50565b600081359050610d8a81610d64565b92915050565b60008060408385031215610da757610da6610cf2565b5b6000610db585828601610d45565b9250506020610dc685828601610d7b565b9150509250929050565b610dd981610d5a565b82525050565b6000602082019050610df46000830184610dd0565b92915050565b610e0381610d1c565b82525050565b6000602082019050610e1e6000830184610dfa565b92915050565b600060208284031215610e3a57610e39610cf2565b5b6000610e4884828501610d7b565b91505092915050565b7f4e487b7100000000000000000000000000000000000000000000000000000000600052602160045260246000fd5b60038110610e9157610e90610e51565b5b50565b6000819050610ea282610e80565b919050565b6000610eb282610e94565b9050919050565b610ec281610ea7565b82525050565b6000602082019050610edd6000830184610eb9565b92915050565b6000819050919050565b610ef681610ee3565b82525050565b6000602082019050610f116000830184610eed565b92915050565b600080fd5b600080fd5b6000601f19601f8301169050919050565b7f4e487b7100000000000000000000000000000000000000000000000000000000600052604160045260246000fd5b610f6a82610f21565b810181811067ffffffffffffffff82111715610f8957610f88610f32565b5b80604052505050565b6000610f9c610ce8565b9050610fa88282610f61565b919050565b600067ffffffffffffffff821115610fc857610fc7610f32565b5b610fd182610f21565b9050602081019050919050565b82818337600083830152505050565b6000611000610ffb84610fad565b610f92565b90508281526020810184848401111561101c5761101b610f1c565b5b611027848285610fde565b509392505050565b600082601f83011261104457611043610f17565b5b8135611054848260208601610fed565b91505092915050565b60008060006060848603121561107657611075610cf2565b5b600061108486828701610d7b565b935050602061109586828701610d7b565b925050604084013567ffffffffffffffff8111156110b6576110b5610cf7565b5b6110c28682870161102f565b9150509250925092565b6000819050919050565b60006110f16110ec6110e784610cfc565b6110cc565b610cfc565b9050919050565b6000611103826110d6565b9050919050565b6000611115826110f8565b9050919050565b6111258161110a565b82525050565b6000602082019050611140600083018461111c565b92915050565b600082825260208201905092915050565b7f4f6e6c792073656e6465722063616e2063616c6c20746869732066756e63746960008201527f6f6e2e0000000000000000000000000000000000000000000000000000000000602082015250565b60006111b3602383611146565b91506111be82611157565b604082019050919050565b600060208201905081810360008301526111e2816111a6565b9050919050565b7f496e76616c69642073746174652e000000000000000000000000000000000000600082015250565b600061121f600e83611146565b915061122a826111e9565b602082019050919050565b6000602082019050818103600083015261124e81611212565b9050919050565b7f4e487b7100000000000000000000000000000000000000000000000000000000600052601160045260246000fd5b600061128f82610d5a565b915061129a83610d5a565b9250827fffffffffffffffffffffffffffffffffffffffffffffffffffffffffffffffff038211156112cf576112ce611255565b5b828201905092915050565b7f5265656e7472616e637947756172643a207265656e7472616e742063616c6c00600082015250565b6000611310601f83611146565b915061131b826112da565b602082019050919050565b6000602082019050818103600083015261133f81611303565b9050919050565b7f4e6f7420617574686f72697a6564000000000000000000000000000000000000600082015250565b600061137c600e83611146565b915061138782611346565b602082019050919050565b600060208201905081810360008301526113ab8161136f565b9050919050565b7f4368616e6e656c20657870697265642e00000000000000000000000000000000600082015250565b60006113e8601083611146565b91506113f3826113b2565b602082019050919050565b60006020820190508181036000830152611417816113db565b9050919050565b6000819050919050565b61143961143482610d5a565b61141e565b82525050565b60008160601b9050919050565b60006114578261143f565b9050919050565b60006114698261144c565b9050919050565b61148161147c82610d1c565b61145e565b82525050565b60006114938286611428565b6020820191506114a38285611470565b6014820191506114b38284611428565b602082019150819050949350505050565b600081905092915050565b7f19457468657265756d205369676e6564204d6573736167653a0a333200000000600082015250565b6000611505601c836114c4565b9150611510826114cf565b601c82019050919050565b6000819050919050565b61153661153182610ee3565b61151b565b82525050565b6000611547826114f8565b91506115538284611525565b60208201915081905092915050565b7f496e76616c6964207369676e6174757265000000000000000000000000000000600082015250565b6000611598601183611146565b91506115a382611562565b602082019050919050565b600060208201905081810360008301526115c78161158b565b9050919050565b6000815190506115dd81610d64565b92915050565b6000602082840312156115f9576115f8610cf2565b5b6000611607848285016115ce565b91505092915050565b60006040820190506116256000830185610dfa565b6116326020830184610dd0565b9392505050565b60008115159050919050565b61164e81611639565b811461165957600080fd5b50565b60008151905061166b81611645565b92915050565b60006020828403121561168757611686610cf2565b5b60006116958482850161165c565b91505092915050565b7f546f6b656e207472616e7366657220746f20726563697069656e74206661696c60008201527f6564000000000000000000000000000000000000000000000000000000000000602082015250565b60006116fa602283611146565b91506117058261169e565b604082019050919050565b60006020820190508181036000830152611729816116ed565b9050919050565b600061173b82610d5a565b915061174683610d5a565b92508282101561175957611758611255565b5b828203905092915050565b7f546f6b656e207472616e7366657220746f2073656e646572206661696c656400600082015250565b600061179a601f83611146565b91506117a582611764565b602082019050919050565b600060208201905081810360008301526117c98161178d565b9050919050565b60006117dc8286611470565b6014820191506117ec8285611470565b6014820191506117fc8284611428565b602082019150819050949350505050565b600060ff82169050919050565b6118238161180d565b82525050565b600060808201905061183e6000830187610eed565b61184b602083018661181a565b6118586040830185610eed565b6118656060830184610eed565b95945050505050565b7f496e76616c6964207369676e6174757265206c656e6774682e00000000000000600082015250565b60006118a4601983611146565b91506118af8261186e565b602082019050919050565b600060208201905081810360008301526118d381611897565b905091905056fea2646970667358221220fac15538d98a80f4624e241f3ec014e2bec1a25ba9ca240d6c062f3e4dd3e7da64736f6c634300080a0033",
  "immutableReferences": {},
  "source": "// SPDX-License-Identifier: MIT\npragma solidity ^0.8.9;\n\nimport \"@openzeppelin/contracts/token/ERC20/IERC20.sol\";\nimport \"@openzeppelin/contracts/utils/Strings.sol\";\n\n\ncontract ReentrancyGuard {\n    bool private _notEntered;\n\n    constructor () {\n        // Initially not entered\n        _notEntered = true;\n    }\n\n    modifier nonReentrant() {\n        // On the first call to nonReentrant, _notEntered will be true\n        require(_notEntered, \"ReentrancyGuard: reentrant call\");\n\n        // Any calls made from within this call chain will fail\n        _notEntered = false;\n\n        _;\n\n        // By storing the original state before any call, we ensure that\n        // even if there is a reentrancy attack, the guard will be\n        // reset and will keep working as expected\n        _notEntered = true;\n    }\n}\n\ncontract PaymentChannel is ReentrancyGuard{\n    enum State {\n        Inactive,\n        Active,\n        Closed\n    }\n\n    State public state = State.Inactive;\n    address public sender;\n    address public recipient;\n    uint256 public expiration;\n    IERC20 public token;\n    bytes32 public channelId;\n\n    modifier onlySender() {\n        require(msg.sender == sender, \"Only sender can call this function.\");\n        _;\n    }\n\n    modifier onlySenderOrRecipient() {\n        require(msg.sender == sender || msg.sender == recipient, \"Not authorized\");\n        _;\n    }\n\n    modifier inState(State _state) {\n        require(state == _state, \"Invalid state.\");\n        _;\n    }\n\n    event Message(bytes32 message);\n\n    event Signature(bytes32 signature);\n\n    event Closed(uint balance);\n\n    event ChannelOpened(bytes32 channelId);\n\n    constructor(address _token) {\n        token = IERC20(_token);\n        sender = msg.sender;\n    }\n\n    function openChannel(address _recipient, uint256 duration) public onlySender inState(State.Inactive) {\n        recipient = _recipient;\n        expiration = block.timestamp + duration;\n        state = State.Active;\n        channelId = generateChannelId(sender, recipient);\n        emit ChannelOpened(channelId);\n    }\n\n    function closeChannel(uint256 amount, uint256 nonce, bytes memory signature ) public nonReentrant onlySenderOrRecipient inState(State.Active) {\n        require(block.timestamp <= expiration, \"Channel expired.\");\n\n        bytes32 hash = keccak256(abi.encodePacked(amount, address(this), nonce));\n\n        emit Message(hash);\n\n        bytes32 message = keccak256(abi.encodePacked(\"\\x19Ethereum Signed Message:\\n32\", hash));\n\n        require(recoverSigner(message, signature) == sender, \"Invalid signature\");\n\n        emit Closed(amount);\n\n        uint256 contractBalance = token.balanceOf(address(this));\n\n        require(token.transfer(recipient, amount), \"Token transfer to recipient failed\");\n\n        if (contractBalance > amount) {\n            require(token.transfer(sender, contractBalance - amount), \"Token transfer to sender failed\");\n        }\n\n        state = State.Closed;\n    }\n\n    function extend(uint256 duration) public onlySender inState(State.Active) {\n        expiration += duration;\n    }\n\n    function generateChannelId(address _sender, address _recipient) private view returns (bytes32) {\n        return keccak256(abi.encodePacked(_sender, _recipient, block.timestamp));\n    }\n\n    function recoverSigner(bytes32 message, bytes memory sig) internal pure returns (address)\n    {\n        (uint8 v, bytes32 r, bytes32 s) = splitSignature(sig);\n        return ecrecover(message, v, r, s);\n    }\n\n    function splitSignature(bytes memory sig) internal pure returns (uint8 v, bytes32 r, bytes32 s)\n    {\n        require(sig.length == 65, \"Invalid signature length.\");\n\n        assembly {\n            r := mload(add(sig, 32))\n            s := mload(add(sig, 64))\n            v := byte(0, mload(add(sig, 96)))\n        }\n\n        return (v, r, s);\n    }\n\n    function prefixed(bytes32 hash) internal pure returns (bytes32) {\n        return keccak256(abi.encodePacked(\"\\x19Ethereum Signed Message:\\n32\", hash));\n    }\n}\n\n\n\n",
  "sourcePath": "/Users/avitenzer/Documents/_workspace/payment_channel/contracts/PaymentChannel.sol",
  "compiler": {
    "name": "solc",
    "version": "0.8.10+commit.fc410830.Emscripten.clang"
  },
  "schemaVersion": "3.4.4",
  "updatedAt": "2023-05-20T13:57:36.071Z",
  "networkType": "ethereum",
  "devdoc": {
    "kind": "dev",
    "methods": {},
    "version": 1
  },
  "userdoc": {
    "kind": "user",
    "methods": {},
    "version": 1
  }
}